:020000041000EA
:10100000201100201910001000000000991000109D
:1010100000040100000000801149124A124B00F048
:1010200018F8124880471249124A134B00F011F881
:101030001249134A134B00F00CF81349134A0020CD
:10104000521A02DD043A8850FCDC114880471148EE
:1010500080479B1A03DD043BC858D050FBDC704727
:10106000D02300100C0000201C0100209D10001057
:10107000E0240010201100208411002044250010DD
:10108000841100208411002084110020A011002070
:10109000C91A001079180010FEE7000080B500AFF3
:1010A00000F004F800F006F8BD4680BD80B500AF42
:1010B000BD4680BD80B500AF094BC0225A62094BC6
:1010C000094A1A60C046074B1A688023DB051340A3
:1010D000F9D1034BC3225A6200F008F8BD4680BD27
:1010E00000000140000301400001F13F80B500AF66
:1010F000124B1A68FF231B0213401A0A104B1A6086
:101100000E4B1B68FF221A400E4B1A600C4B1B68DB
:10111000002B0ED00A4B1B681A020A4B1B68D3180F
:101120000948191C00F03EFC031C5A00074B1A60CA
:1011300002E0064B064A1A60BD4680BD000301402E
:101140008411002088110020000024F4FC3F0020BE
:101150000048E80190B585B000AFF8607A600B23D5
:10116000FB180A1C1A700B23FB181B789B08DBB2B8
:10117000181C0B23FB181B789B08DBB21A1CFB689E
:1011800004329200D3580B22BA18127803210A4075
:10119000D200111CF8228A40D2431A40111CFB686D
:1011A000021D9200D150FB685B6F0B22BA181278B7
:1011B0005200111C03228A40D2431A40FB685A672E
:1011C0000B23FB181B78DB08DBB2181C0B23FB1866
:1011D0001B78DB08DBB21A1CFB6810329200D35874
:1011E0000B22BA18127807210A409200111C04221F
:1011F0008A40D2431A40111CFB68021C1032920034
:10120000D1500B23FB181B78DB08DBB2181C0B2317
:10121000FB181B78DB08DBB21A1CFB68103292004B
:10122000D2587B685B781C1C0B23FB181B780721AA
:101230000B409B009C40231C1A43111CFB68021CA2
:1012400010329200D150FB681D4A93420BD1FB68CB
:101250001B6E0B22BA181278012191400A1CD2434E
:101260001A40FB681A667B685A680B23FB181B78C8
:101270009A40FB685A600B23FB181B789B08DBB273
:10128000181C0B23FB181B789B08DBB21A1CFB688D
:1012900004329200D2587B681B781C1C0B23FB186D
:1012A0001B7803210B40DB009C40231C1A43111CBC
:1012B000FB68021D9200D150BD4605B090BDC046EE
:1012C0000002044080B500AF024BC3225A62BD4603
:1012D00080BDC0460000014080B500AF054BC02274
:1012E0005A62C046034B5B6A04221340FAD1BD46E2
:1012F00080BDC0460000014080B500AF044A044BE9
:101300009B8C9BB201210B439BB29384BD4680BD55
:101310000010014080B500AF86235B001B68984732
:10132000031C181CBD4680BD80B582B000AF021CF6
:10133000BB1D1A80FFF7D0FF094B094A1169BA1D7E
:1013400012880A431A61C046054B1A688023DB05E0
:101350001340F9D1FFF7B6FFBD4602B080BDC046CD
:101360000003014080B500AF024B1B68181CBD464E
:1013700080BDC046FC3F002080B582B000AF7860E1
:101380007B689B6BDBB27F229343DBB2181CBD46AC
:1013900002B080BD80B582B000AF786039607B68F4
:1013A0003A68DA64BD4602B080BDC04680B584B0FC
:1013B00000AF786039601023FB607B68181C00F078
:1013C0007BF83B68DB79002B02D03B68DB79FB6064
:1013D0003B681A687968FB68081C111C1A1C00F02D
:1013E00093F83B689B79013B5A00FB685B0801332B
:1013F0001B02134301221A437B68DA633B681B79A3
:10140000013B1B06812252001A437B685A633B68EA
:101410005B79002B09D07B685A6B3B685B79013B99
:101420001B041A437B685A6308E07B685A6B3B686D
:101430001B79013B1B041A437B685A637B68A0221B
:10144000D2009A637B6801225242DA643B681B89AE
:101450001A1C7B681A64BD4604B080BD80B582B09A
:1014600000AF78600A1CBB1C1A807A6884235B007A
:10147000D258E023DB04134014D1C0467B68181C0B
:10148000FFF77AFF031E802BF8D07A6880239B0138
:10149000101C191CFFF77EFFBB1C1A887B6880217B
:1014A0005A5005E0BB1C19887A68C0235B00D150F4
:1014B000BD4602B080BDC04680B582B000AF786046
:1014C0007A689023DB059A4203D07B680C4A9342EA
:1014D00003D10C4B181C00F08DF87B680322DA60F6
:1014E000C0467B68DB6801221340FAD07B681B6C26
:1014F0000F2293431A1C7B681A64BD4602B080BD5C
:10150000000200480800004880B58EB000AFF860C7
:10151000B9607A60BB68632B5CD97B68002B59D0BB
:10152000FFF720FF031C181C642100F03BFA031C8A
:101530003B62BB68181C642100F034FA031CBB60DA
:101540000123FB620123BB62284B7B62274B3B6379
:1015500024E03B6A3A6B5A43111CBB687A685343D8
:10156000081C191C00F01EFA031CFB61FB699B0A96
:10157000BB61FB699B059B0D7B61BB691B4A934269
:1015800009D87A697B6A9A4205D27B697B62BB691A
:10159000BB623B6BFB623B6B013B3B633B6B002BDA
:1015A000D7D1FB6A802212021A43FB681A61FB68DA
:1015B0005B690F4A1A407B68013B9B021A43BB6A76
:1015C000013B1B041A43FB685A613723FB180022B6
:1015D0001A7003E03723FB1801221A703723FB1817
:1015E0001B78181CBD460EB080BDC046FF0300002E
:1015F000EF8000FC80B582B000AF78607B68044A61
:10160000934202D10820FFF78FFEBD4602B080BD95
:101610000800004880B586B000AF7860144B7B614D
:10162000144B1B68002B08D1124B134A1A60114B44
:101630001A687B69D218114B1A600E4B1B683B610C
:101640000C4B1B681A1C7B68D31807330722934383
:10165000FB600A4B1B68FA689A4201D3002303E03F
:10166000044BFA681A603B69181CBD4606B080BD81
:101670005C2E00008C110020A01100209011002091
:1016800080B500AFBD4680BD80B582B000AF786048
:101690000A1CFB1C1A70FB1C1B78034A9A407B68CF
:1016A0005A60BD4602B080BD0100010080B582B025
:1016B00000AF7860081C111CFB1C021C1A70BB1CBC
:1016C0000A1C1A70FB1C1878FB1C1B787A680633FE
:1016D0009B00D3185B68072293431A1CBB1C1B7822
:1016E0001A437968831D9B00CB185A60BD4602B02F
:1016F00080BDC04680B582B000AF78607B681B6C4F
:101700000F22934302221A437B681A64BD4602B03B
:1017100080BDC04680B582B000AF7860081C111C47
:10172000FB1C021C1A70BB1C0A1C1A70FB1C1878CC
:10173000FB1C1B787A6806339B00D3185B68502229
:1017400093431A1C7968831D9B00CB185A607968F3
:10175000FB1C1A78BB1C1B78081C111C1A1CFFF7F9
:10176000A5FFBD4602B080BD80B58CB000AF24237C
:10177000FB1800221A6000225A6000229A6024237B
:10178000FB18E12252021A602423FB1808221A7166
:101790002423FB1801229A719023DA052423FB18D5
:1017A000101C191CFFF702FE9023DB05181C0021FA
:1017B0000622FFF7AFFF9023DB05181C0321002250
:1017C000FFF7A8FF9023DB05181CFFF793FF1C23EE
:1017D000FB1800221A6000225A601423FB18002212
:1017E0001A6000225A601423FB18B0221A701423C6
:1017F000FB1801225A600C23FB1800221A600022F9
:101800005A600C23FB1880221A700C23FB188022CC
:1018100052025A603B1D00221A6000225A603B1D92
:1018200080221A703B1D802252025A60104A1423F3
:10183000FB18101C01211A1CFFF78CFC0C4A1C23FE
:10184000FB18101C02211A1CFFF784FC094A0C2308
:10185000FB18101C00211A1CFFF77CFC054A3B1DDD
:10186000101C01211A1CFFF775FCBD460CB080BD91
:10187000000204400001044080B584B000AF0023A2
:10188000FB600023BB60FFF76FFFFFF735FD3B1DDB
:10189000154A1A60154A3B1D101C191C00F040F82F
:1018A000134A144B101C191C00F03AF8FFF732FDD4
:1018B000031CBB60BB68123BFF3BFB600E4AFB682E
:1018C000101C191C00F02CF80C4B181C00F01AF816
:1018D0000B4B181C0021FFF7D7FE094B181C0121E8
:1018E000FFF7D2FED6E7C046322E30003C23001070
:1018F00054230010702300107C23001020A1070047
:101900000001044080B582B000AF786002E07B68DF
:10191000013B7B607B68002BF9D1BD4602B080BDE6
:101920000FB490B5C3B000AF8E235B00FB183B60D3
:10193000391D8C235B00FB181A683B68081C111CBE
:101940001A1C00F007F90823FF33FB1800221A7055
:1019500016E00823FF33FB181B783A1DD3181B78B9
:101960009AB29023DB05181C111CFFF777FD0823A2
:10197000FF33FB181A780823FF33FB1801321A7063
:101980000823FF33FB181C783B1D181C00F0C2F81D
:10199000031C9C42DDD3BD4643B090BC08BC04B0E0
:1019A0001847C046002243088B4274D303098B4278
:1019B0005FD3030A8B4244D3030B8B4228D3030C1F
:1019C0008B420DD3FF22090212BA030C8B4202D3C1
:1019D0001212090265D0030B8B4219D300E0090AE9
:1019E000C30B8B4201D3CB03C01A5241830B8B42F2
:1019F00001D38B03C01A5241430B8B4201D34B03DB
:101A0000C01A5241030B8B4201D30B03C01A52413F
:101A1000C30A8B4201D3CB02C01A5241830A8B42C4
:101A200001D38B02C01A5241430A8B4201D34B02AD
:101A3000C01A5241030A8B4201D30B02C01A524111
:101A4000CDD2C3098B4201D3CB01C01A52418309C5
:101A50008B4201D38B01C01A524143098B4201D3FF
:101A60004B01C01A524103098B4201D30B01C01A2A
:101A70005241C3088B4201D3CB00C01A52418308A4
:101A80008B4201D38B00C01A524143088B4201D3D1
:101A90004B00C01A5241411A00D201465241104631
:101AA0007047FFE701B5002000F00CF802BDC0460A
:101AB0000029F7D003B5FFF775FF0EBC4243891A22
:101AC0001847C0467047C0460E4B70B500251E1C17
:101AD0000D4CE41AA410A54204D0AB00F35898476B
:101AE0000135F8E7FFF7CCFD084B00251E1C084C1C
:101AF000E41AA410A54204D0AB00F358984701356E
:101B0000F8E770BD3A2300103A2300103A23001082
:101B10003A2300100023C25C0133002AFBD1581E77
:101B20007047000030B59BB00091049108496D46A4
:101B300002910591012182244942E981A40069466C
:101B4000AC8100F075F80023009A13701BB030BD13
:101B5000FFFFFF7F38B5051C0C1C131C034A291C12
:101B60001068221CFFF7DEFF38BDC0468011002040
:101B7000F0B58E6885B0071C0C1C03920193B3422C
:101B800045D390238A89DB001A423DD00325096999
:101B9000236801985B1A029363695D43EB0F5D193B
:101BA000029B6D1001331B189D4200D21D1C381C76
:101BB00053050FD5291C00F025FB061E13D0029AF1
:101BC000216900F0BCFAA289184B1340802213430C
:101BD000A38111E02A1C00F06DFB061E0CD1381CFD
:101BE000216900F0C9FA0C23402201203B60A3893F
:101BF00040421343A38117E0029B2661F61826603A
:101C00006561019EED1AA560019BB34200D2019E61
:101C1000321C2068039900F09BFA0020A3689B1BEC
:101C2000A36023689E19266005B0F0BD7FFBFFFF0F
:101C3000F0B59FB0029005938B890E1C171C1B06F4
:101C400010D50B69002B0DD1402100F0DBFA30607C
:101C50003061002804D10C23029A01381360D0E0CF
:101C600040237361002306AD6B6120336B76103324
:101C7000AB763C1C2378002B03D1E31B049312D0DA
:101C800003E0252BF9D00134F4E7049B0298311CC2
:101C90003A1CFFF76DFF431C00D1ACE06A69049B5E
:101CA000944663446B612378002B00D1A3E00122AA
:101CB000002352426A6002A95432521801342B6048
:101CC000EB60AB601370AB654F4F2178381C052279
:101CD00000F02AFA002808D0C01B01278740381CD2
:101CE0002B68013418432860EEE72B68DA0604D528
:101CF0005322202102A8121811701A0704D553226A
:101D00002B2102A81218117022782A2A01D0099BCF
:101D10000EE0059A111D12680591002A01DB099257
:101D200004E05242EA60022213432B60013409E0CE
:101D30002278303A092A04D80A214B4301349B18EF
:101D4000F6E7099323782E2B18D163782A2B09D133
:101D5000059B02341A1D1B680592002B0DDA012326
:101D60005B420AE0002301342278303A092A04D881
:101D70000A214B4301349B18F6E70793234F217840
:101D8000381C032200F0D0F9002807D0C01B4027E0
:101D90008740381C2B6801341843286021781C4880
:101DA0000622671C297600F0BFF9002812D0194BD3
:101DB000002B06D10722059B073393430833059375
:101DC00014E005AB00930298291C321C124B00E072
:101DD00000BF07E005AB00930298291C321C0E4B94
:101DE00000F08AF80390039B013304D06B69039AD7
:101DF0009B186B613DE7B3890B985B0601D5012009
:101E000040421FB0F0BDC04692230010982300103E
:101E10009C23001000000000711B0010F7B5171C78
:101E200001930A698B6800900C1C934200DA131C22
:101E3000221C3B6043321278002A01D001333B6000
:101E400023689B0602D53B6802333B600625236866
:101E50001D401ED0231C43331B785A1E9341226819
:101E600092061CD53020E1184031C870211C5A1C44
:101E700045310978A21840320233D1700FE0221C9C
:101E80000123009801991932089EB047431C0ED0D7
:101E90000135E3683A689B1A9D42F0DBDAE7221CC1
:101EA000009801994332089DA847431C02D10120A4
:101EB000404220E006232068E1683A68034000259C
:101EC000042B03D18D1AEB43DB171D40A368226955
:101ED000934201DD9B1AED180027AF420ADA221C5B
:101EE0000123009801991A32089EB047431CDED0A6
:101EF0000137F2E70020FEBDF0B58BB006920A1C58
:101F000043320793059004920A7E0C1C109B6E2AA4
:101F100000D1A8E011D8632A22D009D8002A00D124
:101F2000B2E0582A00D0C2E045310A707C4A4FE046
:101F3000642A1DD0692A1BD0B9E0732A00D1A7E01A
:101F400009D86F2A29D0702A00D0B0E02022096871
:101F50000A43226037E0752A1FD0782A33D0A6E0E2
:101F60000D1C1A684235111D196013682B70A1E011
:101F700021681A68080603D5111D1960166805E066
:101F80004906F9D5111D19600023D65E002E3BDAF3
:101F90002D23049A7642137036E021681A680806E9
:101FA00003D5111D1960166805E04906F9D5111D04
:101FB00019601668B6B25A4B227E03930A276F2A1D
:101FC0001DD108271BE0221C782145321170554A8B
:101FD00019680392081D226818600E68100602D462
:101FE000500600D5B6B2D30702D520231A4322608B
:101FF0001027002E03D1202322689A432260231C3D
:10200000002243331A7002E00A27454B03936368AA
:10201000A360002B03DB0422216891432160002E82
:1020200002D1049D002B0ED0049D301C391CFFF7FB
:102030003FFD039B013D5B5C301C2B70391CFFF79F
:10204000B1FC061EF1D1082F09D12368DB0706D5A4
:1020500063682269934202DC3023013D2B70049BAC
:102060005B1B23612BE009681A68080607D4490640
:1020700005D5111D19601368A28A1A8004E0111D8C
:102080001960136862691A600023049D236116E0D9
:102090001A68111D196015680021281C626800F07B
:1020A00043F8002801D0401B6060636803E0251CF2
:1020B00042352A70012323610023049A1370079B81
:1020C00005980093211C069B09AAFFF7A7FE431C55
:1020D00002D10120404221E02A1C2369059806997B
:1020E000079DA847431CF4D023689B0705D4099B90
:1020F000E068984212DA181C10E00025E368099A9B
:102100009B1A9D42F3DA221C012305980699193285
:10211000079EB047431CDCD00135EFE70BB0F0BDA4
:10212000A3230010B4230010C9B28218904204D037
:1021300003788B4202D00130F8E70020704700237B
:1021400010B5934203D0CC5CC4540133F9E710BD01
:1021500010B5814208D28B18984205D29B1A013AD9
:1021600009D3995C8154FAE70023934203D0CC5CF5
:10217000C4540133F9E710BD30B500293ED004390D
:102180000B68002B00DAC9181D4A1368141C002BB9
:1021900002D14B60116031E099420DD208680A18F3
:1021A0009A4203D11368C3180B6053684B602160D7
:1021B00024E08A4203D8131C5A68002AF9D11D680A
:1021C0005C198C420BD10968691858181960904243
:1021D00014D110685268091819605A600EE08C42D8
:1021E00002D90C23036009E008680C18944203D15B
:1021F00014685268001908604A60596030BDC046D2
:1022000098110020032370B5CC1C9C430834051C96
:102210000C2C01D20C2405E0002C03DA0C23002046
:102220002B6042E08C42F9D3204A1368101C191C21
:10223000002913D00A68121B0DD40B2A02D90A6098
:102240008B181FE08B4202D15A6802601BE04A687B
:102250005A600B1C17E00B1C4968E9E7144E336801
:10226000002B03D1281C00F04BF83060281C211CE7
:1022700000F046F8031C421CD0D00322C61C964333
:1022800086420AD11C60181C07210B301A1D884396
:10229000821A0AD05142995007E0311A281C00F0E6
:1022A0002FF8431CBAD0331CECE770BD9811002006
:1022B00094110020F8B5061C0C1C151C002904D133
:1022C000111CFFF79FFF041C18E0002A03D1FFF741
:1022D00053FF2C1C12E000F025F8A8420ED2301C4F
:1022E000291CFFF78FFF071E07D0211C2A1CFFF7B0
:1022F00026FF301C211CFFF73FFF3C1C201CF8BDB3
:1023000038B50023064C051C081C2360FFF782F932
:10231000431C03D12368002B00D02B6038BDC0467E
:102320009C1100200B1F1A68101F002A04DA89185C
:0C23300004390B68D01804387047000016
:10233C004669726D776172652056657273696F6E4E
:10234C003A2025730D0A00004669726D776172653B
:10235C0020636F6D70696C652074696D653A20251A
:10236C00730D0A0031333A34303A3031000000003A
:10237C0054656D70657261747572653A2025640DD3
:10238C000A0000004300232D302B2000686C4C0009
:10239C006566674546470030313233343536373859
:1023AC0039414243444546003031323334353637B7
:0923BC0038396162636465660052
:1023D0002C488746000000000000000000000000BC
:1023E00000000000000000000000000000000000ED
:1023F000254887460000000000000000234887466B
:1024000023488746234887462348874623488746EC
:1024100023488746234887462348874623488746DC
:102420000000000000000000214887462148874640
:1024300021488746214887462148874621488746C4
:102440002148874621488746000000000000000020
:1024500000000000000000001D4887461D48874618
:102460001D4887461D488746000000000000000008
:10247000000000000000000000000000000000005C
:102480000000000099100010991000109910001021
:102490009910001099100010991000109910001058
:1024A0009910001099100010991000109910001048
:1024B0009910001099100010991000109910001038
:1024C0009910001099100010991000109910001028
:1024D0009910001099100010991000109910001018
:1024E00000000000000000000000000000000000EC
:1024F00000000000000000000000000000000000DC
:102500009023001000000000000000000000000008
:1025100000000000000000000000000000000000BB
:1025200000000000000000000000000000000000AB
:10253000000000000000000000000000000000009B
:042540002011002046
:0400000510001019BE
:00000001FF
